{
  "_format": "hh-sol-artifact-1",
  "contractName": "Handler",
  "sourceName": "contracts/Handler.sol",
  "abi": [
    {
      "inputs": [],
      "stateMutability": "nonpayable",
      "type": "constructor"
    },
    {
      "anonymous": false,
      "inputs": [
        {
          "indexed": true,
          "internalType": "address",
          "name": "worker",
          "type": "address"
        },
        {
          "indexed": true,
          "internalType": "bytes32",
          "name": "taskId",
          "type": "bytes32"
        }
      ],
      "name": "Claimed",
      "type": "event"
    },
    {
      "anonymous": false,
      "inputs": [
        {
          "indexed": true,
          "internalType": "address",
          "name": "worker",
          "type": "address"
        },
        {
          "indexed": true,
          "internalType": "bytes32",
          "name": "taskId",
          "type": "bytes32"
        }
      ],
      "name": "ClaimedAndExecuted",
      "type": "event"
    },
    {
      "anonymous": false,
      "inputs": [
        {
          "indexed": true,
          "internalType": "address",
          "name": "sender",
          "type": "address"
        },
        {
          "indexed": true,
          "internalType": "address",
          "name": "token",
          "type": "address"
        },
        {
          "indexed": false,
          "internalType": "uint256",
          "name": "amount",
          "type": "uint256"
        },
        {
          "indexed": false,
          "internalType": "bytes",
          "name": "recipient",
          "type": "bytes"
        },
        {
          "indexed": false,
          "internalType": "string",
          "name": "task",
          "type": "string"
        }
      ],
      "name": "Deposited",
      "type": "event"
    },
    {
      "anonymous": false,
      "inputs": [
        {
          "indexed": true,
          "internalType": "address",
          "name": "worker",
          "type": "address"
        },
        {
          "indexed": true,
          "internalType": "bytes32",
          "name": "taskId",
          "type": "bytes32"
        }
      ],
      "name": "Dropped",
      "type": "event"
    },
    {
      "anonymous": false,
      "inputs": [
        {
          "indexed": true,
          "internalType": "address",
          "name": "previousOwner",
          "type": "address"
        },
        {
          "indexed": true,
          "internalType": "address",
          "name": "newOwner",
          "type": "address"
        }
      ],
      "name": "OwnershipTransferred",
      "type": "event"
    },
    {
      "anonymous": false,
      "inputs": [
        {
          "indexed": false,
          "internalType": "address",
          "name": "account",
          "type": "address"
        }
      ],
      "name": "Paused",
      "type": "event"
    },
    {
      "anonymous": false,
      "inputs": [
        {
          "indexed": false,
          "internalType": "address",
          "name": "account",
          "type": "address"
        }
      ],
      "name": "Unpaused",
      "type": "event"
    },
    {
      "inputs": [
        {
          "internalType": "address",
          "name": "",
          "type": "address"
        },
        {
          "internalType": "uint256",
          "name": "",
          "type": "uint256"
        }
      ],
      "name": "_activedTasks",
      "outputs": [
        {
          "internalType": "bytes32",
          "name": "",
          "type": "bytes32"
        }
      ],
      "stateMutability": "view",
      "type": "function"
    },
    {
      "inputs": [
        {
          "internalType": "bytes32",
          "name": "",
          "type": "bytes32"
        }
      ],
      "name": "_depositRecords",
      "outputs": [
        {
          "internalType": "address",
          "name": "sender",
          "type": "address"
        },
        {
          "internalType": "contract IERC20",
          "name": "token",
          "type": "address"
        },
        {
          "internalType": "uint256",
          "name": "amount",
          "type": "uint256"
        },
        {
          "internalType": "bytes",
          "name": "recipient",
          "type": "bytes"
        },
        {
          "internalType": "string",
          "name": "task",
          "type": "string"
        }
      ],
      "stateMutability": "view",
      "type": "function"
    },
    {
      "inputs": [
        {
          "internalType": "address",
          "name": "",
          "type": "address"
        }
      ],
      "name": "_workers",
      "outputs": [
        {
          "internalType": "bool",
          "name": "",
          "type": "bool"
        }
      ],
      "stateMutability": "view",
      "type": "function"
    },
    {
      "inputs": [
        {
          "components": [
            {
              "internalType": "address",
              "name": "target",
              "type": "address"
            },
            {
              "internalType": "bytes",
              "name": "callData",
              "type": "bytes"
            },
            {
              "internalType": "uint256",
              "name": "value",
              "type": "uint256"
            },
            {
              "internalType": "bool",
              "name": "needSettle",
              "type": "bool"
            },
            {
              "internalType": "uint256",
              "name": "updateOffset",
              "type": "uint256"
            },
            {
              "internalType": "uint256",
              "name": "updateLen",
              "type": "uint256"
            },
            {
              "internalType": "address",
              "name": "spendAsset",
              "type": "address"
            },
            {
              "internalType": "uint256",
              "name": "spendAmount",
              "type": "uint256"
            },
            {
              "internalType": "address",
              "name": "receiveAsset",
              "type": "address"
            },
            {
              "internalType": "uint256",
              "name": "inputCall",
              "type": "uint256"
            },
            {
              "internalType": "uint256",
              "name": "callIndex",
              "type": "uint256"
            }
          ],
          "internalType": "struct Handler.Call[]",
          "name": "calls",
          "type": "tuple[]"
        }
      ],
      "name": "batchCall",
      "outputs": [],
      "stateMutability": "nonpayable",
      "type": "function"
    },
    {
      "inputs": [
        {
          "internalType": "bytes32",
          "name": "taskId",
          "type": "bytes32"
        }
      ],
      "name": "claim",
      "outputs": [],
      "stateMutability": "nonpayable",
      "type": "function"
    },
    {
      "inputs": [
        {
          "internalType": "bytes32",
          "name": "taskId",
          "type": "bytes32"
        },
        {
          "components": [
            {
              "internalType": "address",
              "name": "target",
              "type": "address"
            },
            {
              "internalType": "bytes",
              "name": "callData",
              "type": "bytes"
            },
            {
              "internalType": "uint256",
              "name": "value",
              "type": "uint256"
            },
            {
              "internalType": "bool",
              "name": "needSettle",
              "type": "bool"
            },
            {
              "internalType": "uint256",
              "name": "updateOffset",
              "type": "uint256"
            },
            {
              "internalType": "uint256",
              "name": "updateLen",
              "type": "uint256"
            },
            {
              "internalType": "address",
              "name": "spendAsset",
              "type": "address"
            },
            {
              "internalType": "uint256",
              "name": "spendAmount",
              "type": "uint256"
            },
            {
              "internalType": "address",
              "name": "receiveAsset",
              "type": "address"
            },
            {
              "internalType": "uint256",
              "name": "inputCall",
              "type": "uint256"
            },
            {
              "internalType": "uint256",
              "name": "callIndex",
              "type": "uint256"
            }
          ],
          "internalType": "struct Handler.Call[]",
          "name": "calls",
          "type": "tuple[]"
        }
      ],
      "name": "claimAndBatchCall",
      "outputs": [],
      "stateMutability": "nonpayable",
      "type": "function"
    },
    {
      "inputs": [
        {
          "internalType": "address",
          "name": "token",
          "type": "address"
        },
        {
          "internalType": "uint256",
          "name": "amount",
          "type": "uint256"
        },
        {
          "internalType": "bytes",
          "name": "recipient",
          "type": "bytes"
        },
        {
          "internalType": "address",
          "name": "worker",
          "type": "address"
        },
        {
          "internalType": "bytes32",
          "name": "taskId",
          "type": "bytes32"
        },
        {
          "internalType": "string",
          "name": "task",
          "type": "string"
        }
      ],
      "name": "deposit",
      "outputs": [],
      "stateMutability": "nonpayable",
      "type": "function"
    },
    {
      "inputs": [
        {
          "internalType": "bytes32",
          "name": "taskId",
          "type": "bytes32"
        }
      ],
      "name": "drop",
      "outputs": [],
      "stateMutability": "nonpayable",
      "type": "function"
    },
    {
      "inputs": [
        {
          "internalType": "address",
          "name": "worker",
          "type": "address"
        },
        {
          "internalType": "bytes32",
          "name": "taskId",
          "type": "bytes32"
        }
      ],
      "name": "findActivedTask",
      "outputs": [
        {
          "components": [
            {
              "internalType": "address",
              "name": "sender",
              "type": "address"
            },
            {
              "internalType": "contract IERC20",
              "name": "token",
              "type": "address"
            },
            {
              "internalType": "uint256",
              "name": "amount",
              "type": "uint256"
            },
            {
              "internalType": "bytes",
              "name": "recipient",
              "type": "bytes"
            },
            {
              "internalType": "string",
              "name": "task",
              "type": "string"
            }
          ],
          "internalType": "struct Handler.DepositInfo",
          "name": "depositInfo",
          "type": "tuple"
        }
      ],
      "stateMutability": "view",
      "type": "function"
    },
    {
      "inputs": [
        {
          "internalType": "address",
          "name": "worker",
          "type": "address"
        }
      ],
      "name": "getActivedTasks",
      "outputs": [
        {
          "internalType": "bytes32[]",
          "name": "",
          "type": "bytes32[]"
        }
      ],
      "stateMutability": "view",
      "type": "function"
    },
    {
      "inputs": [
        {
          "internalType": "address",
          "name": "worker",
          "type": "address"
        }
      ],
      "name": "getLastActivedTask",
      "outputs": [
        {
          "internalType": "bytes32",
          "name": "",
          "type": "bytes32"
        }
      ],
      "stateMutability": "view",
      "type": "function"
    },
    {
      "inputs": [
        {
          "internalType": "bytes32",
          "name": "taskId",
          "type": "bytes32"
        }
      ],
      "name": "getTaskData",
      "outputs": [
        {
          "components": [
            {
              "internalType": "address",
              "name": "sender",
              "type": "address"
            },
            {
              "internalType": "contract IERC20",
              "name": "token",
              "type": "address"
            },
            {
              "internalType": "uint256",
              "name": "amount",
              "type": "uint256"
            },
            {
              "internalType": "bytes",
              "name": "recipient",
              "type": "bytes"
            },
            {
              "internalType": "string",
              "name": "task",
              "type": "string"
            }
          ],
          "internalType": "struct Handler.DepositInfo",
          "name": "",
          "type": "tuple"
        }
      ],
      "stateMutability": "view",
      "type": "function"
    },
    {
      "inputs": [],
      "name": "owner",
      "outputs": [
        {
          "internalType": "address",
          "name": "",
          "type": "address"
        }
      ],
      "stateMutability": "view",
      "type": "function"
    },
    {
      "inputs": [],
      "name": "paused",
      "outputs": [
        {
          "internalType": "bool",
          "name": "",
          "type": "bool"
        }
      ],
      "stateMutability": "view",
      "type": "function"
    },
    {
      "inputs": [
        {
          "internalType": "address",
          "name": "worker",
          "type": "address"
        }
      ],
      "name": "removeWorker",
      "outputs": [],
      "stateMutability": "nonpayable",
      "type": "function"
    },
    {
      "inputs": [],
      "name": "renounceOwnership",
      "outputs": [],
      "stateMutability": "nonpayable",
      "type": "function"
    },
    {
      "inputs": [
        {
          "internalType": "address[]",
          "name": "workers",
          "type": "address[]"
        }
      ],
      "name": "setMultiWorkers",
      "outputs": [],
      "stateMutability": "nonpayable",
      "type": "function"
    },
    {
      "inputs": [
        {
          "internalType": "address",
          "name": "worker",
          "type": "address"
        }
      ],
      "name": "setWorker",
      "outputs": [],
      "stateMutability": "nonpayable",
      "type": "function"
    },
    {
      "inputs": [
        {
          "internalType": "address",
          "name": "newOwner",
          "type": "address"
        }
      ],
      "name": "transferOwnership",
      "outputs": [],
      "stateMutability": "nonpayable",
      "type": "function"
    }
  ],
  "bytecode": "0x608060405234801561001057600080fd5b50600160005561001f33610043565b6001805460ff60a01b19169055600280546001600160a01b03191630179055610095565b600180546001600160a01b038381166001600160a01b0319831681179093556040519116919082907f8be0079c531659141344cd1fd0a4f28419497f9722a3daafe3b4186f6b6457e090600090a35050565b61312080620000a56000396000f3fe608060405234801561001057600080fd5b50600436106101215760003560e01c80638da5cb5b116100ad578063c4f987a511610071578063c4f987a51461027e578063f0d9232814610291578063f1e03657146102b2578063f2088061146102c5578063f2fde38b146102d857600080fd5b80638da5cb5b146101f95780639ab8136414610214578063ad3ea89f14610238578063bd66528a14610258578063c26f6d441461026b57600080fd5b806358af9f73116100f457806358af9f731461018a5780635c975abb1461019d57806362539944146101bb5780636b6359a0146101de578063715018a6146101f157600080fd5b80631ae79fa8146101265780632b3d7b841461014f5780634f39ca591461016457806350f294f214610177575b600080fd5b610139610134366004612655565b6102eb565b60405161014691906126d1565b60405180910390f35b61016261015d366004612788565b610517565b005b6101626101723660046127c9565b610578565b6101626101853660046128f8565b61074a565b6101396101983660046127c9565b610bef565b600154600160a01b900460ff165b6040519015158152602001610146565b6101ab6101c93660046129a8565b60056020526000908152604090205460ff1681565b6101626101ec3660046129c5565b610d6b565b610162610f95565b6001546040516001600160a01b039091168152602001610146565b6102276102223660046127c9565b610fa9565b604051610146959493929190612a10565b61024b6102463660046129a8565b6110f7565b6040516101469190612a61565b6101626102663660046127c9565b611163565b6101626102793660046129a8565b611337565b61016261028c3660046129a8565b611363565b6102a461029f3660046129a8565b61138c565b604051908152602001610146565b6101626102c0366004612aa5565b611438565b6102a46102d3366004612655565b6114ec565b6101626102e63660046129a8565b61151d565b6102f361258f565b6001600160a01b03831660009081526004602090815260408083208054825181850281018501909352808352919290919083018282801561035357602002820191906000526020600020905b81548152602001906001019080831161033f575b5050505050905060005b815181101561050e5781818151811061037857610378612b4a565b602002602001015184036104fc57600084815260036020818152604092839020835160a08101855281546001600160a01b0390811682526001830154169281019290925260028101549382019390935290820180549192916060840191906103df90612b60565b80601f016020809104026020016040519081016040528092919081815260200182805461040b90612b60565b80156104585780601f1061042d57610100808354040283529160200191610458565b820191906000526020600020905b81548152906001019060200180831161043b57829003601f168201915b5050505050815260200160048201805461047190612b60565b80601f016020809104026020016040519081016040528092919081815260200182805461049d90612b60565b80156104ea5780601f106104bf576101008083540402835291602001916104ea565b820191906000526020600020905b8154815290600101906020018083116104cd57829003601f168201915b50505050508152505092505050610511565b8061050681612baa565b91505061035d565b50505b92915050565b61051f611593565b3360009081526005602052604090205460ff166105575760405162461bcd60e51b815260040161054e90612bc3565b60405180910390fd5b61055f6115e0565b6105698282611639565b506105746001600055565b5050565b610580611593565b3360009081526005602052604090205460ff166105af5760405162461bcd60e51b815260040161054e90612bc3565b6105b76115e0565b60405163035cf3f560e31b8152336004820152602481018290526000903090631ae79fa890604401600060405180830381865afa1580156105fc573d6000803e3d6000fd5b505050506040513d6000823e601f3d908101601f191682016040526106249190810190612c2c565b80519091506001600160a01b031661064e5760405162461bcd60e51b815260040161054e90612cec565b6106583383611e31565b604081810151602083015160025492516370a0823160e01b81526001600160a01b039384166004820152919216906370a0823190602401602060405180830381865afa1580156106ac573d6000803e3d6000fd5b505050506040513d601f19601f820116820180604052508101906106d09190612d19565b10156106ee5760405162461bcd60e51b815260040161054e90612d32565b80516040820151602083015161070f926001600160a01b0390911691612050565b604051829033907fbec576ba6020b57d3816ddfa9528f39fee46e8615f6547e8b2bbad9fd10b4f3490600090a3506107476001600055565b50565b610752611593565b61075a6115e0565b6001600160a01b0386166107a85760405162461bcd60e51b8152602060048201526015602482015274496c6c6567616c20746f6b656e206164647265737360581b604482015260640161054e565b600085116107e85760405162461bcd60e51b815260206004820152600d60248201526c2d32b937903a3930b739b332b960991b604482015260640161054e565b60008451116108325760405162461bcd60e51b8152602060048201526016602482015275496c6c6567616c20726563697069656e74206461746160501b604482015260640161054e565b6001600160a01b0383166108815760405162461bcd60e51b8152602060048201526016602482015275496c6c6567616c20776f726b6572206164647265737360501b604482015260640161054e565b6000828152600360205260409020600401805461089d90612b60565b1590506108dd5760405162461bcd60e51b815260206004820152600e60248201526d4475706c6963617465207461736b60901b604482015260640161054e565b60008151116109225760405162461bcd60e51b8152602060048201526011602482015270496c6c6567616c207461736b206461746160781b604482015260640161054e565b6001600160a01b038316600090815260046020526040902054600a1161097b5760405162461bcd60e51b815260206004820152600e60248201526d546f6f206d616e79207461736b7360901b604482015260640161054e565b6002546040516370a0823160e01b81526001600160a01b0391821660048201526000918816906370a0823190602401602060405180830381865afa1580156109c7573d6000803e3d6000fd5b505050506040513d601f19601f820116820180604052508101906109eb9190612d19565b600254909150610a0a906001600160a01b0389811691339116896120b3565b6002546040516370a0823160e01b81526001600160a01b0391821660048201526000918916906370a0823190602401602060405180830381865afa158015610a56573d6000803e3d6000fd5b505050506040513d601f19601f82011682018060405250810190610a7a9190612d19565b905086610a8782846120eb565b14610ac65760405162461bcd60e51b815260206004820152600f60248201526e151c985b9cd9995c8819985a5b1959608a1b604482015260640161054e565b6001600160a01b0380861660009081526004602090815260408083208054600181810183558286528486209091018a9055825160a0810184523381528e87168186019081528185018f8152606083018f8152608084018d90528d89526003978890529590972082518154908a166001600160a01b03199182161782559151938101805494909916939091169290921790965593516002850155905190939291820190610b729082612da6565b5060808201516004820190610b879082612da6565b50905050886001600160a01b0316336001600160a01b03167fb5f7e233d37791bf8bdc015c7f382cc772d3af41868be2c3114d48be2f4468478a8a88604051610bd293929190612e65565b60405180910390a3505050610be76001600055565b505050505050565b610bf761258f565b600082815260036020818152604092839020835160a08101855281546001600160a01b039081168252600183015416928101929092526002810154938201939093529082018054919291606084019190610c5090612b60565b80601f0160208091040260200160405190810160405280929190818152602001828054610c7c90612b60565b8015610cc95780601f10610c9e57610100808354040283529160200191610cc9565b820191906000526020600020905b815481529060010190602001808311610cac57829003601f168201915b50505050508152602001600482018054610ce290612b60565b80601f0160208091040260200160405190810160405280929190818152602001828054610d0e90612b60565b8015610d5b5780601f10610d3057610100808354040283529160200191610d5b565b820191906000526020600020905b815481529060010190602001808311610d3e57829003601f168201915b5050505050815250509050919050565b610d73611593565b3360009081526005602052604090205460ff16610da25760405162461bcd60e51b815260040161054e90612bc3565b610daa6115e0565b60405163035cf3f560e31b8152336004820152602481018490526000903090631ae79fa890604401600060405180830381865afa158015610def573d6000803e3d6000fd5b505050506040513d6000823e601f3d908101601f19168201604052610e179190810190612c2c565b80519091506001600160a01b0316610e415760405162461bcd60e51b815260040161054e90612cec565b80602001516001600160a01b031683836000818110610e6257610e62612b4a565b9050602002810190610e749190612e9a565b610e859060e081019060c0016129a8565b6001600160a01b031614610ed15760405162461bcd60e51b81526020600482015260136024820152720e6e0cadcc882e6e6cae840dad2e6dac2e8c6d606b1b604482015260640161054e565b806040015183836000818110610ee957610ee9612b4a565b9050602002810190610efb9190612e9a565b60e0013514610f435760405162461bcd60e51b81526020600482015260146024820152730e6e0cadcc882dadeeadce840dad2e6dac2e8c6d60631b604482015260640161054e565b610f4d8383611639565b50610f583385611e31565b604051849033907f91d697238e9aa9f3172d17522c9be529b94a892481554e1ea619369b5b12f39a90600090a350610f906001600055565b505050565b610f9d6120fe565b610fa76000612158565b565b600360208190526000918252604090912080546001820154600283015493830180546001600160a01b0393841695939092169391610fe690612b60565b80601f016020809104026020016040519081016040528092919081815260200182805461101290612b60565b801561105f5780601f106110345761010080835404028352916020019161105f565b820191906000526020600020905b81548152906001019060200180831161104257829003601f168201915b50505050509080600401805461107490612b60565b80601f01602080910402602001604051908101604052809291908181526020018280546110a090612b60565b80156110ed5780601f106110c2576101008083540402835291602001916110ed565b820191906000526020600020905b8154815290600101906020018083116110d057829003601f168201915b5050505050905085565b6001600160a01b03811660009081526004602090815260409182902080548351818402810184019094528084526060939283018282801561115757602002820191906000526020600020905b815481526020019060010190808311611143575b50505050509050919050565b61116b611593565b3360009081526005602052604090205460ff1661119a5760405162461bcd60e51b815260040161054e90612bc3565b6111a26115e0565b60405163035cf3f560e31b8152336004820152602481018290526000903090631ae79fa890604401600060405180830381865afa1580156111e7573d6000803e3d6000fd5b505050506040513d6000823e601f3d908101601f1916820160405261120f9190810190612c2c565b80519091506001600160a01b03166112395760405162461bcd60e51b815260040161054e90612cec565b6112433383611e31565b604081810151602083015160025492516370a0823160e01b81526001600160a01b039384166004820152919216906370a0823190602401602060405180830381865afa158015611297573d6000803e3d6000fd5b505050506040513d601f19601f820116820180604052508101906112bb9190612d19565b10156112d95760405162461bcd60e51b815260040161054e90612d32565b6112ff33826040015183602001516001600160a01b03166120509092919063ffffffff16565b604051829033907f91d697238e9aa9f3172d17522c9be529b94a892481554e1ea619369b5b12f39a90600090a3506107476001600055565b61133f6120fe565b6001600160a01b03166000908152600560205260409020805460ff19166001179055565b61136b6120fe565b6001600160a01b03166000908152600560205260409020805460ff19169055565b6001600160a01b0381166000908152600460209081526040808320805482518185028101850190935280835284938301828280156113e957602002820191906000526020600020905b8154815260200190600101908083116113d5575b505050505090506000815111156114295780600182516114099190612ebb565b8151811061141957611419612b4a565b6020026020010151915050919050565b50600092915050565b50919050565b6114406120fe565b60648151106114845760405162461bcd60e51b815260206004820152601060248201526f546f6f206d616e7920776f726b65727360801b604482015260640161054e565b60005b8151811015610574576001600560008484815181106114a8576114a8612b4a565b6020908102919091018101516001600160a01b03168252810191909152604001600020805460ff1916911515919091179055806114e481612baa565b915050611487565b6004602052816000526040600020818154811061150857600080fd5b90600052602060002001600091509150505481565b6115256120fe565b6001600160a01b03811661158a5760405162461bcd60e51b815260206004820152602660248201527f4f776e61626c653a206e6577206f776e657220697320746865207a65726f206160448201526564647265737360d01b606482015260840161054e565b61074781612158565b600154600160a01b900460ff1615610fa75760405162461bcd60e51b815260206004820152601060248201526f14185d5cd8589b194e881c185d5cd95960821b604482015260640161054e565b6002600054036116325760405162461bcd60e51b815260206004820152601f60248201527f5265656e7472616e637947756172643a207265656e7472616e742063616c6c00604482015260640161054e565b6002600055565b6060816001811161167c5760405162461bcd60e51b815260206004820152600d60248201526c546f6f206665772063616c6c7360981b604482015260640161054e565b8383600081811061168f5761168f612b4a565b90506020028101906116a19190612e9a565b60e00135848460008181106116b8576116b8612b4a565b90506020028101906116ca9190612e9a565b6116db9060e081019060c0016129a8565b6002546040516370a0823160e01b81526001600160a01b0391821660048201529116906370a0823190602401602060405180830381865afa158015611724573d6000803e3d6000fd5b505050506040513d601f19601f820116820180604052508101906117489190612d19565b10156117665760405162461bcd60e51b815260040161054e90612d32565b806001600160401b0381111561177e5761177e6127e2565b6040519080825280602002602001820160405280156117c457816020015b60408051808201909152600081526060602082015281526020019060019003908161179c5790505b50915061184160405180610160016040528060006001600160a01b031681526020016060815260200160008152602001600015158152602001600081526020016000815260200160006001600160a01b031681526020016000815260200160006001600160a01b0316815260200160008152602001600081525090565b6000805b83811015611e275761188c6040518060400160405280601981526020017f3d3d3d3e20537461727420657865637574652063616c6c3a2000000000000000815250826121aa565b60008582815181106118a0576118a0612b4a565b6020026020010151905060008888848181106118be576118be612b4a565b90506020028101906118d09190612e9a565b6118d990612ee7565b90506000831180156118f45750846101400151816101200151145b801561191a57508461010001516001600160a01b03168160c001516001600160a01b0316145b15611b1f576119416040518060600160405280603281526020016130b960329139856121aa565b60008460405160200161195691815260200190565b604051602081830303815290604052905085606001516119b85760405162461bcd60e51b815260206004820152601a60248201527f496e7075742063616c6c206d75737420626520736574746c6564000000000000604482015260640161054e565b8160a00151602014611a0c5760405162461bcd60e51b815260206004820152601960248201527f556e737570706f7274656420757064617465206c656e67746800000000000000604482015260640161054e565b611a4a6040518060400160405280601d81526020017f3d3d3d3e2043616c6c64617461206265666f7265207570646174653a200000008152506121ef565b611a578260200151612232565b60005b8260a00151811015611ad157818181518110611a7857611a78612b4a565b602001015160f81c60f81b8360200151846080015183611a989190612fb1565b81518110611aa857611aa8612b4a565b60200101906001600160f81b031916908160001a90535080611ac981612baa565b915050611a5a565b50611b106040518060400160405280601c81526020017f3d3d3d3e2043616c6c64617461206166746572207570646174653a20000000008152506121ef565b611b1d8260200151612232565b505b600080826060015115611ba2576101008301516002546040516370a0823160e01b81526001600160a01b0391821660048201529116906370a0823190602401602060405180830381865afa158015611b7b573d6000803e3d6000fd5b505050506040513d601f19601f82011682018060405250810190611b9f9190612d19565b91505b611be06040518060400160405280601a81526020017f3d3d3d3e20526561647920746f20657865637574652063616c6c0000000000008152506121ef565b82600001516001600160a01b03168360200151604051611c009190612fc4565b6000604051808303816000865af19150503d8060008114611c3d576040519150601f19603f3d011682016040523d82523d6000602084013e611c42565b606091505b50602080870191909152901515855260408051808201909152601581527401e9e9e9f1022bc32b1baba32903932b9bab63a1d1605d1b918101919091528451611c8b9190612275565b611cbd604051806040016040528060118152602001701e9e9e9f102932ba3ab937103230ba309d60791b8152506121ef565b611cca8460200151612232565b8351604080518082018252600d81526c021b0b636103330b4b632b21d1609d1b602080830191909152808801519251611d04939101612fd6565b60405160208183030381529060405290611d315760405162461bcd60e51b815260040161054e9190613005565b50846001019450826060015115611e1e576101008301516002546040516370a0823160e01b81526001600160a01b0391821660048201529116906370a0823190602401602060405180830381865afa158015611d91573d6000803e3d6000fd5b505050506040513d601f19601f82011682018060405250810190611db59190612d19565b9050611dc181836120eb565b9550829650611e1e604051806040016040528060098152602001680f4f4f4f8810d85b1b60ba1b8152508461014001516040518060400160405280600e81526020016d03132b2b71039b2ba3a3632b21d160951b815250896122ba565b50505050611845565b5050505092915050565b6001600160a01b038216600090815260046020908152604080832080548251818502810185019093528083529192909190830182828015611e9157602002820191906000526020600020905b815481526020019060010190808311611e7d575b5050505050905060005b8151811015611ed757818181518110611eb657611eb6612b4a565b6020026020010151830315611ed75780611ecf81612baa565b915050611e9b565b81518110611ee55750505050565b8151600103611f255760408051600080825260208083018085526001600160a01b038916835260049091529290209051611f1f92906125d0565b5061204a565b600060018351611f359190612ebb565b6001600160401b03811115611f4c57611f4c6127e2565b604051908082528060200260200182016040528015611f75578160200160208202803683370190505b50905060005b83518110156120205782811015611fc957838181518110611f9e57611f9e612b4a565b6020026020010151828281518110611fb857611fb8612b4a565b60200260200101818152505061200e565b838181518110611fdb57611fdb612b4a565b602002602001015182600183611ff19190612ebb565b8151811061200157612001612b4a565b6020026020010181815250505b8061201881612baa565b915050611f7b565b506001600160a01b03851660009081526004602090815260409091208251610be7928401906125d0565b50505050565b6040516001600160a01b038316602482015260448101829052610f9090849063a9059cbb60e01b906064015b60408051601f198184030181529190526020810180516001600160e01b03166001600160e01b031990931692909217909152612303565b6040516001600160a01b038085166024830152831660448201526064810182905261204a9085906323b872dd60e01b9060840161207c565b60006120f78284612ebb565b9392505050565b6001546001600160a01b03163314610fa75760405162461bcd60e51b815260206004820181905260248201527f4f776e61626c653a2063616c6c6572206973206e6f7420746865206f776e6572604482015260640161054e565b600180546001600160a01b038381166001600160a01b0319831681179093556040519116919082907f8be0079c531659141344cd1fd0a4f28419497f9722a3daafe3b4186f6b6457e090600090a35050565b61057482826040516024016121c0929190613018565b60408051601f198184030181529190526020810180516001600160e01b0316632d839cb360e21b1790526123d5565b610747816040516024016122039190613005565b60408051601f198184030181529190526020810180516001600160e01b031663104c13eb60e21b1790526123d5565b610747816040516024016122469190613005565b60408051601f198184030181529190526020810180516001600160e01b03166305f3bfab60e11b1790526123d5565b610574828260405160240161228b92919061303a565b60408051601f198184030181529190526020810180516001600160e01b031663c3b5563560e01b1790526123d5565b61204a848484846040516024016122d4949392919061305e565b60408051601f198184030181529190526020810180516001600160e01b031663c67ea9d160e01b1790526123d5565b6000612358826040518060400160405280602081526020017f5361666545524332303a206c6f772d6c6576656c2063616c6c206661696c6564815250856001600160a01b03166123de9092919063ffffffff16565b805190915015610f905780806020019051810190612376919061309b565b610f905760405162461bcd60e51b815260206004820152602a60248201527f5361666545524332303a204552433230206f7065726174696f6e20646964206e6044820152691bdd081cdd58d8d9595960b21b606482015260840161054e565b610747816123f5565b60606123ed8484600085612416565b949350505050565b60006a636f6e736f6c652e6c6f679050600080835160208501845afa505050565b6060824710156124775760405162461bcd60e51b815260206004820152602660248201527f416464726573733a20696e73756666696369656e742062616c616e636520666f6044820152651c8818d85b1b60d21b606482015260840161054e565b600080866001600160a01b031685876040516124939190612fc4565b60006040518083038185875af1925050503d80600081146124d0576040519150601f19603f3d011682016040523d82523d6000602084013e6124d5565b606091505b50915091506124e6878383876124f1565b979650505050505050565b60608315612560578251600003612559576001600160a01b0385163b6125595760405162461bcd60e51b815260206004820152601d60248201527f416464726573733a2063616c6c20746f206e6f6e2d636f6e7472616374000000604482015260640161054e565b50816123ed565b6123ed83838151156125755781518083602001fd5b8060405162461bcd60e51b815260040161054e9190613005565b6040518060a0016040528060006001600160a01b0316815260200160006001600160a01b031681526020016000815260200160608152602001606081525090565b82805482825590600052602060002090810192821561260b579160200282015b8281111561260b5782518255916020019190600101906125f0565b5061261792915061261b565b5090565b5b80821115612617576000815560010161261c565b6001600160a01b038116811461074757600080fd5b803561265081612630565b919050565b6000806040838503121561266857600080fd5b823561267381612630565b946020939093013593505050565b60005b8381101561269c578181015183820152602001612684565b50506000910152565b600081518084526126bd816020860160208601612681565b601f01601f19169290920160200192915050565b60208152600060018060a01b038084511660208401528060208501511660408401525060408301516060830152606083015160a0608084015261271760c08401826126a5565b90506080840151601f198483030160a085015261273482826126a5565b95945050505050565b60008083601f84011261274f57600080fd5b5081356001600160401b0381111561276657600080fd5b6020830191508360208260051b850101111561278157600080fd5b9250929050565b6000806020838503121561279b57600080fd5b82356001600160401b038111156127b157600080fd5b6127bd8582860161273d565b90969095509350505050565b6000602082840312156127db57600080fd5b5035919050565b634e487b7160e01b600052604160045260246000fd5b60405160a081016001600160401b038111828210171561281a5761281a6127e2565b60405290565b60405161016081016001600160401b038111828210171561281a5761281a6127e2565b604051601f8201601f191681016001600160401b038111828210171561286b5761286b6127e2565b604052919050565b60006001600160401b0382111561288c5761288c6127e2565b50601f01601f191660200190565b60006128ad6128a884612873565b612843565b90508281528383830111156128c157600080fd5b828260208301376000602084830101529392505050565b600082601f8301126128e957600080fd5b6120f78383356020850161289a565b60008060008060008060c0878903121561291157600080fd5b863561291c81612630565b95506020870135945060408701356001600160401b038082111561293f57600080fd5b61294b8a838b016128d8565b95506060890135915061295d82612630565b9093506080880135925060a0880135908082111561297a57600080fd5b508701601f8101891361298c57600080fd5b61299b8982356020840161289a565b9150509295509295509295565b6000602082840312156129ba57600080fd5b81356120f781612630565b6000806000604084860312156129da57600080fd5b8335925060208401356001600160401b038111156129f757600080fd5b612a038682870161273d565b9497909650939450505050565b6001600160a01b038681168252851660208201526040810184905260a060608201819052600090612a43908301856126a5565b8281036080840152612a5581856126a5565b98975050505050505050565b6020808252825182820181905260009190848201906040850190845b81811015612a9957835183529284019291840191600101612a7d565b50909695505050505050565b60006020808385031215612ab857600080fd5b82356001600160401b0380821115612acf57600080fd5b818501915085601f830112612ae357600080fd5b813581811115612af557612af56127e2565b8060051b9150612b06848301612843565b8181529183018401918481019088841115612b2057600080fd5b938501935b83851015612a555784359250612b3a83612630565b8282529385019390850190612b25565b634e487b7160e01b600052603260045260246000fd5b600181811c90821680612b7457607f821691505b60208210810361143257634e487b7160e01b600052602260045260246000fd5b634e487b7160e01b600052601160045260246000fd5b600060018201612bbc57612bbc612b94565b5060010190565b6020808252600a90820152692737ba103bb7b935b2b960b11b604082015260600190565b600082601f830112612bf857600080fd5b8151612c066128a882612873565b818152846020838601011115612c1b57600080fd5b6123ed826020830160208701612681565b600060208284031215612c3e57600080fd5b81516001600160401b0380821115612c5557600080fd5b9083019060a08286031215612c6957600080fd5b612c716127f8565b8251612c7c81612630565b81526020830151612c8c81612630565b602082015260408381015190820152606083015182811115612cad57600080fd5b612cb987828601612be7565b606083015250608083015182811115612cd157600080fd5b612cdd87828601612be7565b60808301525095945050505050565b60208082526013908201527215185cdac8191bd95cc81b9bdd08195e1a5cdd606a1b604082015260600190565b600060208284031215612d2b57600080fd5b5051919050565b602080825260149082015273496e73756666696369656e742062616c616e636560601b604082015260600190565b601f821115610f9057600081815260208120601f850160051c81016020861015612d875750805b601f850160051c820191505b81811015610be757828155600101612d93565b81516001600160401b03811115612dbf57612dbf6127e2565b612dd381612dcd8454612b60565b84612d60565b602080601f831160018114612e085760008415612df05750858301515b600019600386901b1c1916600185901b178555610be7565b600085815260208120601f198616915b82811015612e3757888601518255948401946001909101908401612e18565b5085821015612e555787850151600019600388901b60f8161c191681555b5050505050600190811b01905550565b838152606060208201526000612e7e60608301856126a5565b8281036040840152612e9081856126a5565b9695505050505050565b6000823561015e19833603018112612eb157600080fd5b9190910192915050565b8181038181111561051157610511612b94565b801515811461074757600080fd5b803561265081612ece565b60006101608236031215612efa57600080fd5b612f02612820565b612f0b83612645565b815260208301356001600160401b03811115612f2657600080fd5b612f32368286016128d8565b60208301525060408301356040820152612f4e60608401612edc565b60608201526080830135608082015260a083013560a0820152612f7360c08401612645565b60c082015260e083013560e0820152610100612f90818501612645565b90820152610120838101359082015261014092830135928101929092525090565b8082018082111561051157610511612b94565b60008251612eb1818460208701612681565b60008351612fe8818460208801612681565b835190830190612ffc818360208801612681565b01949350505050565b6020815260006120f760208301846126a5565b60408152600061302b60408301856126a5565b90508260208301529392505050565b60408152600061304d60408301856126a5565b905082151560208301529392505050565b60808152600061307160808301876126a5565b856020840152828103604084015261308981866126a5565b91505082606083015295945050505050565b6000602082840312156130ad57600080fd5b81516120f781612ece56fe3d3d3d3e2055706461746520736574746c65416d6f756e7420746f2063616c6c646174612066726f6d206f66667365743a20a2646970667358221220362e8f8fd169a68ac71e13a3ed45d8f4959b2621b99d11aceb84fdccb2646abf64736f6c63430008110033",
  "linkReferences": {},
  "deployedLinkReferences": {}
}